:100000000C9442010C94B8060C948D060C94620674
:100010000C9437060C940C060C94E1050C94B60570
:100020000C948B050C9473010C9473010C94730164
:100030000C9473010C9473010C9473010C94730170
:100040000C9473010C9473010C9473010C94730160
:100050000C9443070C9473010C9473010C944105A8
:100060000C9473010C940D070C94E3060C9473012B
:100070000C9473010C9473010C9473010C94730130
:100080000C9473010C9473010C9473010C94730120
:100090000C9473010C9473010C9473010C94730110
:1000A0000C9473010C9473010C9473010C94730100
:1000B0000C9473010C9473010C9473010C947301F0
:1000C0000C9473010C9473010C9473010C947301E0
:1000D0000C9473010C9473010C9473010C947301D0
:1000E0000C947301A401A70196019A019E01DE01FF
:1000F000AB01AF01B501B901BD01C301C701CB011E
:10010000DE01D101D501D9010C9438030C947003A0
:100110000C9496010C94BD030C94DE010C94160310
:100120000C949E010C94D1010C947E020C94C3019A
:100130000C94B5010C94D8020C9407030C9474022F
:100140000C94CB010C94D9020C94A7010C94A4013B
:100150000C94C7010C94AB010C9488020C949A0186
:100160000C946E070C942A030C94BD010C94B901F5
:100170000C94D5010C94AF010C94D901000021001E
:10018000240027002A002D00300033000101000068
:10019000040107010A0100002200250028002B00AD
:1001A0002E003100340002010000050108010B019E
:1001B00005050505070508080808020202020A0AE3
:1001C0000808040404040101010101010101030301
:1001D000030303030303040707070C0C0C0C0C0CAC
:1001E0000C0C0202020206060606060606060B0BA9
:1001F0000B0B0B0B0B0B01021020200808102040EA
:1002000010204080020102010804020101020408DA
:100210001020408080402010080402018004020168
:1002200080402010080402010804020101020408B1
:1002300010204080010204081020408000000A0BBA
:1002400002090C0D0E080703040100000000000065
:10025000000000000000000000000000000000009E
:10026000000000000000000012111000000000005B
:10027000000000000000000000000000000000007E
:1002800000006E0711241FBECFEFD1E2DEBFCDBF4D
:1002900000E00CBF12E0A0E0B2E0ECE3F7E100E028
:1002A0000BBF02C007900D92A239B107D9F723E026
:1002B000A2E9B2E001C01D92A135B207E1F711E059
:1002C000C2E4D1E000E006C021970109802FFE01C1
:1002D0000E94EC09C134D10780E00807A9F70E9409
:1002E0001E080C949C0B0C940000362F90E0FC012F
:1002F000E45CFD4F4491FC01EA50FE4F2491FC0167
:10030000E055FE4F9491992309F46CC0442309F4FD
:1003100055C050E0FA013197E231F10508F04EC0C6
:100320008827EE58FF4F8F4F0C94EC098091800086
:100330008F7707C0809180008F7D03C080918000FF
:10034000877F809380003AC084B58F7702C084B5E0
:100350008F7D84BD33C08091B0008F7703C08091C2
:10036000B0008F7D8093B00029C0809190008F777E
:1003700007C0809190008F7D03C080919000877F9F
:10038000809390001BC08091A0008F7707C0809160
:10039000A0008F7D03C08091A000877F8093A00084
:1003A0000DC0809120018F7707C0809120018F7D43
:1003B00003C080912001877F80932001E92FF0E026
:1003C000EE0FFF1FEA56FE4FA591B4919FB7F89428
:1003D000311104C08C912095282302C0EC912E2B62
:1003E0002C939FBF0895CF93DF9360E08CE00E9431
:1003F000750160E088E00E947501C7E0D0E060E030
:1004000084E00E9475018091480390E00C2E02C0A8
:10041000959587950A94E2F780FF02C061E001C0DC
:1004200060E088E00E94750161E084E00E9475014F
:10043000219728F761E08CE0DF91CF910C94750152
:10044000CF93DF9390E0FC01EA50FE4F2491FC0132
:10045000E055FE4F8491882361F190E0880F991F49
:10046000FC01E458FE4FC591D491FC01EA56FE4FC1
:10047000A591B491611109C09FB7F8948881209526
:1004800082238883EC912E230BC0623061F49FB7E6
:10049000F8948881322F309583238883EC912E2B1A
:1004A0002C939FBF06C08FB7F894E8812E2B28832A
:1004B0008FBFDF91CF91089561E08CE00E94200210
:1004C00061E087E00E94200261E088E00E94200253
:1004D00061E084E00E942002109248030E94F30130
:1004E00060E087E00C94750180919C0290919D02E0
:1004F000019690939D0280939C02089580919802AA
:100500009091990201969093990280939802089590
:10051000CF93DF93CFE6D0E0188260919C02709178
:100520009D02072E000C880B990B0E949E0A20E06A
:1005300030E040E251E40E94F40920E030E040E77E
:1005400052E40E942A0B0E94660A70939B026093F9
:100550009A026091980270919902072E000C880B04
:10056000990B0E949E0A20E030E040E251E40E9494
:10057000F40920E030E040E752E40E942A0B0E9498
:10058000660A7093970260939602109299021092F5
:10059000980210929D0210929C0288E892E090933B
:1005A00093028093920281E08883DF91CF91089536
:1005B0000895CF92DF92EF92FF920F931F93CF9304
:1005C000DF936C017A018B01C0E0D0E0CE15DF052E
:1005D00081F0D8016D918D01D601ED91FC910190D2
:1005E000F081E02DC6011995892B11F02196EECFEF
:1005F0007E01C701DF91CF911F910F91FF90EF9086
:10060000DF90CF900895089580E090E00895FC0178
:10061000538D448D252F30E0842F90E0821B930B67
:10062000541710F0CF96089501970895FC01918D0D
:10063000828D981761F0828DDF01A80FB11D5D9644
:100640008C91928D9F5F9F73928F90E008958FEFB2
:100650009FEF0895FC01918D828D981731F0828D66
:10066000E80FF11D858D90E008958FEF9FEF0895BD
:10067000FC01918D228D892F90E0805C9F4F821B21
:1006800091098F73992708958BEA92E00E943803AD
:1006900021E0892B09F420E0822F0895FC01848D4C
:1006A000DF01A80FB11DA35ABF4F2C91848D90E09C
:1006B00001968F739927848FA689B7892C93A08977
:1006C000B1898C91837080648C93938D848D981301
:1006D00006C00288F389E02D80818F7D8083089594
:1006E000EF92FF920F931F93CF93DF93EC0181E082
:1006F000888F9B8D8C8D981305C0E889F98980813E
:1007000085FD26C0F62E0B8D10E00F5F1F4F0F7377
:100710001127E02E8C8DE8120CC00FB607FCFACF23
:10072000E889F989808185FFF5CFCE010E944E03CB
:10073000F1CF8B8DFE01E80FF11DE35AFF4FF082E0
:100740009FB7F8940B8FEA89FB89808180620AC089
:100750009FB7F894EE89FF896083E889F9898081E1
:100760008370806480839FBF81E090E0DF91CF91B0
:100770001F910F91FF90EF900895CF93DF93EC01BD
:10078000888D8823C9F0EA89FB89808185FD05C0B1
:10079000A889B9898C9186FD0FC00FB607FCF5CFEB
:1007A000808185FFF2CFA889B9898C9185FFEDCF33
:1007B000CE010E944E03E7CFDF91CF91089580E0F4
:1007C00090E0892B21F00E944403811125C080E034
:1007D00090E0892B41F080E090E0892B21F00E948D
:1007E000000081111CC080E090E0892B41F080E086
:1007F00090E0892B21F00E940000811113C080E05D
:1008000090E0892BA1F080E090E0892B81F00E949C
:10081000000081110AC008950E940000D8CF0E94F4
:100820000000E1CF0E940000EACF0C940000089580
:10083000FC018081823079F018F4813031F0089524
:10084000833079F0843099F0089570E070938900D6
:1008500060938800089570E070939D0060939C0001
:10086000089570E07093A9006093A800089570E067
:1008700070939900609398000895FC018081823004
:1008800049F018F4813079F00895833031F08430E4
:1008900039F0089524E031E008C027E035E005C0D4
:1008A00026E030E002C023E032E06230A9F064309C
:1008B00029F16130B9F581E090E0AC0101C0440F4D
:1008C0003A95EAF730914803432B01C0880F2A95E7
:1008D000EAF78095842322C081E090E0AC0101C05A
:1008E000440F3A95EAF7342F30954091480334236A
:1008F00001C0880F2A95EAF7832B10C041E050E031
:10090000CA0101C0880F3A95EAF701C0440F2A9541
:10091000EAF7842B809590914803892380934803BC
:100920000C94F3010895CF93C82F682F8FE493E0C0
:100930000E9418046C2F8DE493E00E9418046C2F21
:100940008BE493E00E9418046C2F89E493E0CF912C
:100950000C941804009769F0FC0101900020E9F75D
:100960003197AF01481B590BBC018BEA92E00C9404
:10097000D90280E090E00895CF93DF930E94AA040B
:10098000EC0182E292E00E94AA048C0F9D1FDF918D
:10099000CF9108958F929F92AF92BF92CF92DF92A4
:1009A000EF92FF920F931F93CF93DF93CDB7DEB7F4
:1009B000A1970FB6F894DEBF0FBECDBF6C01990FA3
:1009C000EE08FF08F7FE2BC06DE28BEA92E00E9472
:1009D00070038C0122273327A9012C193D094E09E8
:1009E0005F0919A2CE0181967C019AE0892E912C93
:1009F000A12CB12CCA01B901A50194010E94CA0918
:100A0000605DF70162937F012115310541055105B4
:100A100089F7CF010E94AA04800F911F1DC0A70172
:100A2000960119A28E010F5D1F4F8AE0C82ED12CAE
:100A3000E12CF12CCA01B901A70196010E94CA0953
:100A4000605DF80162938F01211531054105510563
:100A500089F7CF010E94AA04A1960FB6F894DEBFD1
:100A60000FBECDBFDF91CF911F910F91FF90EF90FF
:100A7000DF90CF90BF90AF909F908F9008950E948D
:100A8000970B1F920F920FB60F9211242F933F9343
:100A90008F939F93AF93BF938091A7029091A802E9
:100AA000A091A902B091AA023091A60223E0230FDF
:100AB0002D3720F40196A11DB11D05C026E8230F96
:100AC0000296A11DB11D2093A6028093A7029093C8
:100AD000A802A093A902B093AA028091A2029091C9
:100AE000A302A091A402B091A5020196A11DB11D7F
:100AF0008093A2029093A302A093A402B093A502B4
:100B0000BF91AF919F918F913F912F910F900FBE09
:100B10000F901F9018951F920F920FB60F921124ED
:100B20000BB60F922F933F934F935F936F937F93E7
:100B30008F939F93AF93BF93EF93FF93E0910E0238
:100B4000F0910F021995FF91EF91BF91AF919F9195
:100B50008F917F916F915F914F913F912F910F9066
:100B60000BBE0F900FBE0F901F9018951F920F9203
:100B70000FB60F9211240BB60F922F933F934F9302
:100B80005F936F937F938F939F93AF93BF93EF93F5
:100B9000FF93E0910C02F0910D021995FF91EF91F6
:100BA000BF91AF919F918F917F916F915F914F9185
:100BB0003F912F910F900BBE0F900FBE0F901F9083
:100BC00018951F920F920FB60F9211240BB60F9229
:100BD0002F933F934F935F936F937F938F939F9345
:100BE000AF93BF93EF93FF93E0910202F091030262
:100BF0001995FF91EF91BF91AF919F918F917F9147
:100C00006F915F914F913F912F910F900BBE0F907D
:100C10000FBE0F901F9018951F920F920FB60F9254
:100C200011240BB60F922F933F934F935F936F93C3
:100C30007F938F939F93AF93BF93EF93FF93E09135
:100C40000002F09101021995FF91EF91BF91AF91D0
:100C50009F918F917F916F915F914F913F912F91D4
:100C60000F900BBE0F900FBE0F901F9018951F9204
:100C70000F920FB60F9211240BB60F922F933F9342
:100C80004F935F936F937F938F939F93AF93BF9394
:100C9000EF93FF93E0910A02F0910B021995FF91F7
:100CA000EF91BF91AF919F918F917F916F915F91E4
:100CB0004F913F912F910F900BBE0F900FBE0F9051
:100CC0001F9018951F920F920FB60F9211240BB61A
:100CD0000F922F933F934F935F936F937F938F93D5
:100CE0009F93AF93BF93EF93FF93E0910802F0912E
:100CF00009021995FF91EF91BF91AF919F918F914B
:100D00007F916F915F914F913F912F910F900BBE0B
:100D10000F900FBE0F901F9018951F920F920FB655
:100D20000F9211240BB60F922F933F934F935F9323
:100D30006F937F938F939F93AF93BF93EF93FF93A3
:100D4000E0910602F09107021995FF91EF91BF9192
:100D5000AF919F918F917F916F915F914F913F9153
:100D60002F910F900BBE0F900FBE0F901F901895F4
:100D70001F920F920FB60F9211240BB60F922F9362
:100D80003F934F935F936F937F938F939F93AF9313
:100D9000BF93EF93FF93E0910402F0910502199540
:100DA000FF91EF91BF91AF919F918F917F916F9143
:100DB0005F914F913F912F910F900BBE0F900FBEFF
:100DC0000F901F9018951F920F920FB60F9211243B
:100DD0000BB60F922F933F934F935F936F937F9335
:100DE0008F939F93AF93BF93EF93FF938BEA92E020
:100DF0000E944E03FF91EF91BF91AF919F918F9110
:100E00007F916F915F914F913F912F910F900BBE0A
:100E10000F900FBE0F901F9018951F920F920FB654
:100E20000F9211240BB60F922F938F939F93EF93F2
:100E3000FF93E091BB02F091BC028081E091C1027E
:100E4000F091C20282FD12C090818091C4028F5F36
:100E50008F732091C502821751F0E091C402F0E037
:100E6000E555FD4F958F8093C40201C08081FF91AD
:100E7000EF919F918F912F910F900BBE0F900FBE0E
:100E80000F901F9018951F920F920FB60F9211247A
:100E90000BB60F922F933F934F935F936F937F9374
:100EA0008F939F93AF93BF93EF93FF93E091920241
:100EB000F09193021995FF91EF91BF91AF919F919E
:100EC0008F917F916F915F914F913F912F910F90F3
:100ED0000BBE0F900FBE0F901F901895EF92FF92D0
:100EE0000F931F93CF93DF93EBEAF2E0138212820A
:100EF00088EE93E0A0E0B0E084839583A683B78377
:100F000084E192E09183808385EC90E095878487EB
:100F100084EC90E09787868780EC90E0918B808BC3
:100F200081EC90E0938B828B82EC90E0958B848BAC
:100F300086EC90E0978B868B118E128E138E148E1A
:100F4000EFE4F3E081E08083C2E0C1830E945C02B1
:100F500080914803837F809348030E94F301E0E877
:100F6000F0E0808181688083DAE0D0938100109284
:100F700089001092880061E08BE00E942002EDE47D
:100F8000F3E0C083C1830E945C02809148038D7EA0
:100F9000809348030E94F30100E910E0F80180818A
:100FA0008960808381E9E82EF12CF701D0831092CB
:100FB0009D0010929C0061E083E00E942002EBE41F
:100FC000F3E083E08083C1830E945C028091480348
:100FD0008F75809348030E94F301E0EAF0E080817E
:100FE00081688083D093A1001092A9001092A8007C
:100FF00061E086E00E942002E9E4F3E084E080837F
:10100000C1830E945C02809148038E7B80934803D9
:101010000E94F301F801808181688083F701D08309
:10102000109299001092980061E085E0DF91CF91D5
:101030001F910F91FF90EF900C942002789484B54B
:10104000826084BD84B5816084BD85B5826085BDC4
:1010500085B5816085BD80916E00816080936E0052
:101060001092810080918100826080938100809144
:1010700081008160809381008091800081608093F5
:1010800080008091B10084608093B1008091B000B5
:1010900081608093B0008091910082608093910084
:1010A0008091910081608093910080919000816097
:1010B000809390008091A10082608093A100809134
:1010C000A10081608093A1008091A0008160809345
:1010D000A0008091210182608093210180912101F3
:1010E00081608093210180912001816080932001A3
:1010F00080917A00846080937A0080917A00826087
:1011000080937A0080917A00816080937A00809148
:101110007A00806880937A001092C100E091BB024F
:10112000F091BC0282E08083E091B702F091B802B6
:101130001082E091B902F091BA028FEC8083109294
:10114000C302E091BF02F091C00286E08083E0918B
:10115000BD02F091BE02808180618083E091BD027A
:10116000F091BE02808188608083E091BD02F091A1
:10117000BE02808180688083E091BD02F091BE0252
:1011800080818F7D808362E085E10E94200262E0A1
:1011900084E10E94200280E180938100109280000F
:1011A00082E19AE7909387008093860084E18093A0
:1011B000810084E792E09093070280930602809179
:1011C0006900837F846080936900E99A8EE792E0EA
:1011D0009093050280930402809169008C7F816066
:1011E00080936900E89A88E892E090939302809354
:1011F000920281E080936F00CFEFD0E062E08FE455
:1012000093E00E943D0461E08DE493E00E943D0480
:1012100061E08BE493E00E943D0462E089E493E0A6
:101220000E943D042FB7F8948091A7029091A802E4
:10123000A091A902B091AA022FBF40919E025091A5
:101240009F026091A0027091A102841B950BA60BD6
:10125000B70B883E9340A105B10508F44DC085E267
:1012600092E00E94AA0480919C0290919D020E94AB
:10127000CA0485E392E00E94AA0480919A029091A8
:101280009B020E94CA048FE392E00E94AA0487E4B2
:1012900092E00E94AA0480919802909199020E9483
:1012A000CA0485E392E00E94AA048091960290917C
:1012B00097020E94CA0487E592E00E94AA048091E6
:1012C0009402909195020E94CA048EE592E00E94D9
:1012D000BC042FB7F8948091A7029091A802A09126
:1012E000A902B091AA022FBF80939E0290939F0201
:1012F000A093A002B093A1028BEA92E00E9438036F
:10130000892B09F444C085E692E00E94BC048BEA74
:1013100092E00E941603843639F484E690E00E943D
:10132000930486E792E008C0833749F480E090E0B8
:101330000E94930484E892E00E94BC0428C0803795
:1013400071F480919402909195020A968F3F9105D5
:1013500079F074F0D0939502C093940212C08D3648
:10136000B1F480919402909195020A9797FD05C07F
:10137000909395028093940204C01092950210926B
:10138000940280919402909195020E9493040E948D
:10139000DF0334CFA1E21A2EAA1BBB1BFD010DC037
:1013A000AA1FBB1FEE1FFF1FA217B307E407F50715
:1013B00020F0A21BB30BE40BF50B661F771F881FF1
:1013C000991F1A9469F760957095809590959B0187
:1013D000AC01BD01CF010895EE0FFF1F881F8BBF29
:1013E0000790F691E02D19940E94080A0C94F00AD7
:1013F0000E94E90A58F00E94E20A40F029F45F3F97
:1014000029F00C94D90A51110C94240B0C94DF0A86
:101410000E94010B68F39923B1F3552391F3951BB7
:10142000550BBB27AA2762177307840738F09F5F05
:101430005F4F220F331F441FAA1FA9F335D00E2E72
:101440003AF0E0E832D091505040E695001CCAF7DF
:101450002BD0FE2F29D0660F771F881FBB1F2617A2
:1014600037074807AB07B0E809F0BB0B802DBF0179
:10147000FF2793585F4F3AF09E3F510578F00C9448
:10148000D90A0C94240B5F3FE4F3983ED4F386957D
:1014900077956795B795F7959F5FC9F7880F911D69
:1014A0009695879597F90895E1E0660F771F881F55
:1014B000BB1F621773078407BA0720F0621B730B08
:1014C000840BBA0BEE1F88F7E09508950E946D0A11
:1014D0006894B1110C94240B08950E94090B88F0B4
:1014E0009F5798F0B92F9927B751B0F0E1F0660FE8
:1014F000771F881F991F1AF0BA95C9F714C0B13029
:1015000091F00E94230BB1E008950C94230B672FF8
:10151000782F8827B85F39F0B93FCCF38695779557
:101520006795B395D9F73EF4909580957095619540
:101530007F4F8F4F9F4F0895E89409C097FB3EF46B
:1015400090958095709561957F4F8F4F9F4F992310
:10155000A9F0F92F96E9BB279395F695879577958E
:101560006795B795F111F8CFFAF4BB0F11F460FF4E
:101570001BC06F5F7F4F8F4F9F4F16C0882311F0A6
:1015800096E911C0772321F09EE8872F762F05C0BA
:10159000662371F096E8862F70E060E02AF09A9555
:1015A000660F771F881FDAF7880F9695879597F94A
:1015B000089597F99F6780E870E060E008959FEFD5
:1015C00080EC089500240A941616170618060906DA
:1015D000089500240A9412161306140605060895A9
:1015E000092E0394000C11F4882352F0BB0F40F431
:1015F000BF2B11F460FF04C06F5F7F4F8F4F9F4F71
:10160000089557FD9058440F551F59F05F3F71F0F2
:101610004795880F97FB991F61F09F3F79F0879559
:101620000895121613061406551FF2CF4695F1DFE2
:1016300008C0161617061806991FF1CF8695710572
:10164000610508940895E894BB2766277727CB01A6
:1016500097F908950E943D0B0C94F00A0E94E20A4B
:1016600038F00E94E90A20F0952311F00C94D90A71
:101670000C94DF0A11240C94240B0E94010B70F3CC
:10168000959FC1F3950F50E0551F629FF001729F27
:10169000BB27F00DB11D639FAA27F00DB11DAA1F36
:1016A000649F6627B00DA11D661F829F2227B00D83
:1016B000A11D621F739FB00DA11D621F839FA00D0E
:1016C000611D221F749F3327A00D611D231F849F5E
:1016D000600D211D822F762F6A2F11249F575040B5
:1016E0009AF0F1F088234AF0EE0FFF1FBB1F661F30
:1016F000771F881F91505040A9F79E3F510580F0F9
:101700000C94D90A0C94240B5F3FE4F3983ED4F375
:10171000869577956795B795F795E7959F5FC1F79C
:10172000FE2B880F911D9695879597F9089581E076
:0C17300090E0F8940C949C0BF894FFCF10
:10173C00D802D802D802D802D802D802D802D802CD
:10174C00000000007003D9020703BD033803160321
:10175C002A030D0A004D6F746F7220537065656417
:10176C0020313A200020436F756E74732C200020BA
:10177C0052504D202D20004D6F746F7220537065A8
:10178C00656420323A20002052504D2C200020530A
:10179C00706565640073657269616C20617661695E
:1017AC006C61626C65006420776173207072657384
:1017BC007365640073207761732070726573736551
:0217CC006400B7
:00000001FF
